Archive member included because of file (symbol)

D:\Programming\Projects\SPI2WS2812-Worm\SPI2WSFirmware\workspace\CMSIS_CORE_LPC11xxLV\Release\libCMSIS_CORE_LPC11xxLV.a(system_LPC11xxLV.o)
                              ./src/cr_startup_lpc11xxlv.o (SystemInit)
d:/programming/lpcxpresso_7.4.0_229/lpcxpresso/tools/bin/../lib/gcc/arm-none-eabi/4.8.4/armv6-m\libgcc.a(_udivsi3.o)
                              D:\Programming\Projects\SPI2WS2812-Worm\SPI2WSFirmware\workspace\CMSIS_CORE_LPC11xxLV\Release\libCMSIS_CORE_LPC11xxLV.a(system_LPC11xxLV.o) (__aeabi_uidiv)
d:/programming/lpcxpresso_7.4.0_229/lpcxpresso/tools/bin/../lib/gcc/arm-none-eabi/4.8.4/armv6-m\libgcc.a(_dvmd_tls.o)
                              d:/programming/lpcxpresso_7.4.0_229/lpcxpresso/tools/bin/../lib/gcc/arm-none-eabi/4.8.4/armv6-m\libgcc.a(_udivsi3.o) (__aeabi_idiv0)
d:/programming/lpcxpresso_7.4.0_229/lpcxpresso/tools/bin/../lib/gcc/arm-none-eabi/4.8.4/../../../../arm-none-eabi/lib/armv6-m\libc.a(lib_a-init.o)
                              ./src/cr_startup_lpc11xxlv.o (__libc_init_array)
d:/programming/lpcxpresso_7.4.0_229/lpcxpresso/tools/bin/../lib/gcc/arm-none-eabi/4.8.4/../../../../arm-none-eabi/lib/armv6-m\libc.a(lib_a-malloc.o)
                              ./src/cr_cpp_config.o (malloc)
d:/programming/lpcxpresso_7.4.0_229/lpcxpresso/tools/bin/../lib/gcc/arm-none-eabi/4.8.4/../../../../arm-none-eabi/lib/armv6-m\libc.a(lib_a-mallocr.o)
                              d:/programming/lpcxpresso_7.4.0_229/lpcxpresso/tools/bin/../lib/gcc/arm-none-eabi/4.8.4/../../../../arm-none-eabi/lib/armv6-m\libc.a(lib_a-malloc.o) (_malloc_r)
d:/programming/lpcxpresso_7.4.0_229/lpcxpresso/tools/bin/../lib/gcc/arm-none-eabi/4.8.4/../../../../arm-none-eabi/lib/armv6-m\libc.a(lib_a-mlock.o)
                              d:/programming/lpcxpresso_7.4.0_229/lpcxpresso/tools/bin/../lib/gcc/arm-none-eabi/4.8.4/../../../../arm-none-eabi/lib/armv6-m\libc.a(lib_a-mallocr.o) (__malloc_lock)
d:/programming/lpcxpresso_7.4.0_229/lpcxpresso/tools/bin/../lib/gcc/arm-none-eabi/4.8.4/../../../../arm-none-eabi/lib/armv6-m\libc.a(lib_a-sbrkr.o)
                              d:/programming/lpcxpresso_7.4.0_229/lpcxpresso/tools/bin/../lib/gcc/arm-none-eabi/4.8.4/../../../../arm-none-eabi/lib/armv6-m\libc.a(lib_a-mallocr.o) (_sbrk_r)
d:/programming/lpcxpresso_7.4.0_229/lpcxpresso/tools/bin/../lib/gcc/arm-none-eabi/4.8.4/../../../../arm-none-eabi/lib/armv6-m\libc.a(lib_a-freer.o)
                              d:/programming/lpcxpresso_7.4.0_229/lpcxpresso/tools/bin/../lib/gcc/arm-none-eabi/4.8.4/../../../../arm-none-eabi/lib/armv6-m\libc.a(lib_a-malloc.o) (_free_r)
d:/programming/lpcxpresso_7.4.0_229/lpcxpresso/tools/bin/../lib/gcc/arm-none-eabi/4.8.4/../../../../arm-none-eabi/lib/armv6-m\libc.a(lib_a-impure.o)
                              d:/programming/lpcxpresso_7.4.0_229/lpcxpresso/tools/bin/../lib/gcc/arm-none-eabi/4.8.4/../../../../arm-none-eabi/lib/armv6-m\libc.a(lib_a-malloc.o) (_impure_ptr)
d:/programming/lpcxpresso_7.4.0_229/lpcxpresso/tools/bin/../lib/gcc/arm-none-eabi/4.8.4/../../../../arm-none-eabi/lib/armv6-m\libc.a(lib_a-reent.o)
                              d:/programming/lpcxpresso_7.4.0_229/lpcxpresso/tools/bin/../lib/gcc/arm-none-eabi/4.8.4/../../../../arm-none-eabi/lib/armv6-m\libc.a(lib_a-sbrkr.o) (errno)
d:/programming/lpcxpresso_7.4.0_229/lpcxpresso/tools/bin/../lib/gcc/arm-none-eabi/4.8.4/../../../../arm-none-eabi/lib/armv6-m\libcr_newlib_nohost.a(_cr_sbrk.o)
                              d:/programming/lpcxpresso_7.4.0_229/lpcxpresso/tools/bin/../lib/gcc/arm-none-eabi/4.8.4/../../../../arm-none-eabi/lib/armv6-m\libc.a(lib_a-sbrkr.o) (_sbrk)
d:/programming/lpcxpresso_7.4.0_229/lpcxpresso/tools/bin/../lib/gcc/arm-none-eabi/4.8.4/../../../../arm-none-eabi/lib/armv6-m\libcr_newlib_nohost.a(_cr_check_heap.o)
                              d:/programming/lpcxpresso_7.4.0_229/lpcxpresso/tools/bin/../lib/gcc/arm-none-eabi/4.8.4/../../../../arm-none-eabi/lib/armv6-m\libcr_newlib_nohost.a(_cr_sbrk.o) (__check_heap_overflow)
d:/programming/lpcxpresso_7.4.0_229/lpcxpresso/tools/bin/../lib/gcc/arm-none-eabi/4.8.4/../../../../arm-none-eabi/lib/armv6-m\libc.a(lib_a-errno.o)
                              d:/programming/lpcxpresso_7.4.0_229/lpcxpresso/tools/bin/../lib/gcc/arm-none-eabi/4.8.4/../../../../arm-none-eabi/lib/armv6-m\libcr_newlib_nohost.a(_cr_sbrk.o) (__errno)

Allocating common symbols
Common symbol       size              file

errno               0x4               d:/programming/lpcxpresso_7.4.0_229/lpcxpresso/tools/bin/../lib/gcc/arm-none-eabi/4.8.4/../../../../arm-none-eabi/lib/armv6-m\libc.a(lib_a-reent.o)
__end_of_heap       0x4               d:/programming/lpcxpresso_7.4.0_229/lpcxpresso/tools/bin/../lib/gcc/arm-none-eabi/4.8.4/../../../../arm-none-eabi/lib/armv6-m\libcr_newlib_nohost.a(_cr_sbrk.o)

Discarded input sections

 .text          0x00000000        0x0 ./src/SPI2WS281xFirmware.o
 .data          0x00000000        0x0 ./src/SPI2WS281xFirmware.o
 .bss           0x00000000        0x0 ./src/SPI2WS281xFirmware.o
 .text          0x00000000        0x0 ./src/cr_cpp_config.o
 .data          0x00000000        0x0 ./src/cr_cpp_config.o
 .bss           0x00000000        0x0 ./src/cr_cpp_config.o
 .text._Znwj    0x00000000        0x8 ./src/cr_cpp_config.o
 .text._Znaj    0x00000000        0x8 ./src/cr_cpp_config.o
 .text._ZdlPv   0x00000000        0x8 ./src/cr_cpp_config.o
 .text._ZdaPv   0x00000000        0x8 ./src/cr_cpp_config.o
 .text.__aeabi_atexit
                0x00000000        0x4 ./src/cr_cpp_config.o
 .text._ZN9__gnu_cxx27__verbose_terminate_handlerEv
                0x00000000        0x2 ./src/cr_cpp_config.o
 .debug_info    0x00000000      0x20f ./src/cr_cpp_config.o
 .debug_abbrev  0x00000000      0x139 ./src/cr_cpp_config.o
 .debug_loc     0x00000000       0xa5 ./src/cr_cpp_config.o
 .debug_aranges
Memory Configuration

Name             Origin             Length             Attributes
MFlash32         0x00000000         0x00008000         xr
RamLoc8          0x10000000         0x00002000         xrw
*default*        0x00000000         0xffffffff

Linker script and memory map

LOAD ./src/SPI2WS281xFirmware.o
LOAD ./src/cr_cpp_config.o
LOAD ./src/cr_startup_lpc11xxlv.o
LOAD ./src/crp.o
LOAD D:\Programming\Projects\SPI2WS2812-Worm\SPI2WSFirmware\workspace\CMSIS_CORE_LPC11xxLV\Release\libCMSIS_CORE_LPC11xxLV.a
START GROUP
LOAD d:/programming/lpcxpresso_7.4.0_229/lpcxpresso/tools/bin/../lib/gcc/arm-none-eabi/4.8.4/armv6-m\libgcc.a
LOAD d:/programming/lpcxpresso_7.4.0_229/lpcxpresso/tools/bin/../lib/gcc/arm-none-eabi/4.8.4/../../../../arm-none-eabi/lib/armv6-m\libc.a
LOAD d:/programming/lpcxpresso_7.4.0_229/lpcxpresso/tools/bin/../lib/gcc/arm-none-eabi/4.8.4/../../../../arm-none-eabi/lib/armv6-m\libstdc++.a
LOAD d:/programming/lpcxpresso_7.4.0_229/lpcxpresso/tools/bin/../lib/gcc/arm-none-eabi/4.8.4/../../../../arm-none-eabi/lib/armv6-m\libm.a
LOAD d:/programming/lpcxpresso_7.4.0_229/lpcxpresso/tools/bin/../lib/gcc/arm-none-eabi/4.8.4/../../../../arm-none-eabi/lib/armv6-m\libcr_newlib_nohost.a
LOAD d:/programming/lpcxpresso_7.4.0_229/lpcxpresso/tools/bin/../lib/gcc/arm-none-eabi/4.8.4/armv6-m\crti.o
LOAD d:/programming/lpcxpresso_7.4.0_229/lpcxpresso/tools/bin/../lib/gcc/arm-none-eabi/4.8.4/armv6-m\crtn.o
LOAD d:/programming/lpcxpresso_7.4.0_229/lpcxpresso/tools/bin/../lib/gcc/arm-none-eabi/4.8.4/armv6-m\crtbegin.o
LOAD d:/programming/lpcxpresso_7.4.0_229/lpcxpresso/tools/bin/../lib/gcc/arm-none-eabi/4.8.4/armv6-m\crtend.o
END GROUP
                0x00008000                __top_MFlash32 = 0x8000
                0x10002000                __top_RamLoc8 = 0x10002000

.text           0x00000000      0x43c
 FILL mask 0xff
                0x00000000                __vectors_start__ = ABSOLUTE (.)
 *(.isr_vector)
 .isr_vector    0x00000000       0xc0 ./src/cr_startup_lpc11xxlv.o
                0x00000000                g_pfnVectors
                0x000000c0                . = ALIGN (0x4)
                0x000000c0                __section_table_start = .
                0x000000c0                __data_section_table = .
                0x000000c0        0x4 LONG 0x43c LOADADDR (.data)
                0x000000c4        0x4 LONG 0x10000000 ADDR (.data)
                0x000000c8        0x4 LONG 0x0 SIZEOF (.data)
                0x000000cc                __data_section_table_end = .
                0x000000cc                __bss_section_table = .
                0x000000cc        0x4 LONG 0x10000000 ADDR (.bss)
                0x000000d0        0x4 LONG 0x20 SIZEOF (.bss)
                0x000000d4                __bss_section_table_end = .
                0x000000d4                __section_table_end = .
 *(.after_vectors*)
 .after_vectors
                0x000000d4       0x74 ./src/cr_startup_lpc11xxlv.o
                0x000000d4                NMI_Handler
                0x000000d6                HardFault_Handler
                0x000000d8                SVC_Handler
                0x000000da                PendSV_Handler
                0x000000dc                SysTick_Handler
                0x000000de                UART_IRQHandler
                0x000000de                TIMER32_0_IRQHandler
                0x000000de                TIMER32_1_IRQHandler
                0x000000de                IntDefaultHandler
                0x000000de                PIOINT1_IRQHandler
                0x000000de                SSP0_IRQHandler
                0x000000de                TIMER16_1_IRQHandler
                0x000000de                ADC_IRQHandler
                0x000000de                PIOINT2_IRQHandler
                0x000000de                PIOINT3_IRQHandler
                0x000000de                BOD_IRQHandler
                0x000000de                WAKEUP_IRQHandler
                0x000000de                PIOINT0_IRQHandler
                0x000000de                I2C_IRQHandler
                0x000000de                TIMER16_0_IRQHandler
                0x000000de                WDT_IRQHandler
                0x000000de                FMC_IRQHandler
                0x000000e0                data_init(unsigned int, unsigned int, unsigned int)
                0x000000f2                bss_init(unsigned int, unsigned int)
                0x00000102                ResetISR
                0x000002fc                . = 0x2fc
 *fill*         0x00000148      0x1b4 ff
                0x000002fc                PROVIDE (__CRP_WORD_START__, .)
 *(.crp)
 .crp           0x000002fc        0x4 ./src/crp.o
                0x000002fc                CRP_WORD
                0x00000300                PROVIDE (__CRP_WORD_END__, .)
                0x00000001                ASSERT (! ((__CRP_WORD_START__ == __CRP_WORD_END__)), Linker CRP Enabled, but no CRP_WORD provided within application)
 *(.text*)
 .text.startup.main
                0x00000300       0x10 ./src/SPI2WS281xFirmware.o
                0x00000300                main
 .text.SystemInit
                0x00000310       0x68 D:\Programming\Projects\SPI2WS2812-Worm\SPI2WSFirmware\workspace\CMSIS_CORE_LPC11xxLV\Release\libCMSIS_CORE_LPC11xxLV.a(system_LPC11xxLV.o)
                0x00000310                SystemInit
 .text.__libc_init_array
                0x00000378       0x48 d:/programming/lpcxpresso_7.4.0_229/lpcxpresso/tools/bin/../lib/gcc/arm-none-eabi/4.8.4/../../../../arm-none-eabi/lib/armv6-m\libc.a(lib_a-init.o)
                0x00000378                __libc_init_array
 .text          0x000003c0       0x60 d:/programming/lpcxpresso_7.4.0_229/lpcxpresso/tools/bin/../lib/gcc/arm-none-eabi/4.8.4/armv6-m\crtbegin.o
 *(.rodata .rodata.* .constdata .constdata.*)
                0x00000420                . = ALIGN (0x4)
                0x00000420                . = ALIGN (0x4)
 *(.init)
 .init          0x00000420        0x4 d:/programming/lpcxpresso_7.4.0_229/lpcxpresso/tools/bin/../lib/gcc/arm-none-eabi/4.8.4/armv6-m\crti.o
                0x00000420                _init
 .init          0x00000424        0x8 d:/programming/lpcxpresso_7.4.0_229/lpcxpresso/tools/bin/../lib/gcc/arm-none-eabi/4.8.4/armv6-m\crtn.o
                0x0000042c                . = ALIGN (0x4)
                0x0000042c                __preinit_array_start = .
 *(.preinit_array)
                0x0000042c                __preinit_array_end = .
                0x0000042c                . = ALIGN (0x4)
                0x0000042c                __init_array_start = .
 *(SORT(.init_array.*))
 *(.init_array)
 .init_array    0x0000042c        0x4 d:/programming/lpcxpresso_7.4.0_229/lpcxpresso/tools/bin/../lib/gcc/arm-none-eabi/4.8.4/armv6-m\crtbegin.o
                0x00000430                __init_array_end = .
 *(.fini)
 .fini          0x00000430        0x4 d:/programming/lpcxpresso_7.4.0_229/lpcxpresso/tools/bin/../lib/gcc/arm-none-eabi/4.8.4/armv6-m\crti.o
                0x00000430                _fini
 .fini          0x00000434        0x8 d:/programming/lpcxpresso_7.4.0_229/lpcxpresso/tools/bin/../lib/gcc/arm-none-eabi/4.8.4/armv6-m\crtn.o
                0x0000043c                . = ALIGN (0x4)
 *crtbegin.o(.ctors)
 *(EXCLUDE_FILE(*crtend.o) .ctors)
 *(SORT(.ctors.*))
 *crtend.o(.ctors)
                0x0000043c                . = ALIGN (0x4)
 *crtbegin.o(.dtors)
 *(EXCLUDE_FILE(*crtend.o) .dtors)
 *(SORT(.dtors.*))
 *crtend.o(.dtors)
                0x0000043c                . = ALIGN (0x4)

.glue_7         0x0000043c        0x0
 .glue_7        0x00000000        0x0 linker stubs

.glue_7t        0x0000043c        0x0
 .glue_7t       0x00000000        0x0 linker stubs

.vfp11_veneer   0x0000043c        0x0
 .vfp11_veneer  0x00000000        0x0 linker stubs

.v4_bx          0x0000043c        0x0
 .v4_bx         0x00000000        0x0 linker stubs

.iplt           0x0000043c        0x0
 .iplt          0x00000000        0x0 ./src/SPI2WS281xFirmware.o

.rel.dyn        0x0000043c        0x0
 .rel.iplt      0x00000000        0x0 ./src/SPI2WS281xFirmware.o

.eh_frame       0x0000043c        0x0
 .eh_frame      0x0000043c        0x0 d:/programming/lpcxpresso_7.4.0_229/lpcxpresso/tools/bin/../lib/gcc/arm-none-eabi/4.8.4/armv6-m\crtbegin.o

.ARM.extab
 *(.ARM.extab* .gnu.linkonce.armextab.*)
                0x0000043c                __exidx_start = .

.ARM.exidx
 *(.ARM.exidx* .gnu.linkonce.armexidx.*)
                0x0000043c                __exidx_end = .
                0x0000043c                _etext = .

.uninit_RESERVED
                0x10000000        0x0
 *(.bss.$RESERVED*)
                0x10000000                . = ALIGN (0x4)
                0x10000000                _end_uninit_RESERVED = .

.data           0x10000000        0x0 load address 0x0000043c
 FILL mask 0xff
                0x10000000                _data = .
 *(vtable)
 *(.ramfunc*)
 *(.data*)
                0x10000000                . = ALIGN (0x4)
                0x10000000                _edata = .

.igot.plt       0x10000000        0x0 load address 0x0000043c
 .igot.plt      0x00000000        0x0 ./src/SPI2WS281xFirmware.o

.jcr            0x10000000        0x0 load address 0x0000043c
 .jcr           0x10000000        0x0 d:/programming/lpcxpresso_7.4.0_229/lpcxpresso/tools/bin/../lib/gcc/arm-none-eabi/4.8.4/armv6-m\crtbegin.o

.bss            0x10000000       0x20 load address 0x0000043c
                0x10000000                _bss = .
 *(.bss*)
 .bss._ZZ4mainE1i
                0x10000000        0x4 ./src/SPI2WS281xFirmware.o
 .bss           0x10000004       0x1c d:/programming/lpcxpresso_7.4.0_229/lpcxpresso/tools/bin/../lib/gcc/arm-none-eabi/4.8.4/armv6-m\crtbegin.o
 *(COMMON)
                0x10000020                . = ALIGN (0x4)
                0x10000020                _ebss = .
                0x10000020                PROVIDE (end, .)

.noinit         0x10000020        0x0 load address 0x0000043c
                0x10000020                _noinit = .
 *(.noinit*)
                0x10000020                . = ALIGN (0x4)
                0x10000020                _end_noinit = .
                0x10000020                PROVIDE (_pvHeapStart, DEFINED (__user_heap_base)?__user_heap_base:.)
                0x10002000                PROVIDE (_vStackTop, DEFINED (__user_stack_top)?__user_stack_top:(__top_RamLoc8 - 0x0))
OUTPUT(SPI2WS281xFirmware.axf elf32-littlearm)

.debug_info     0x00000000      0x780
 .debug_info    0x00000000       0xab ./src/SPI2WS281xFirmware.o
 .debug_info    0x000000ab      0x271 ./src/cr_startup_lpc11xxlv.o
 .debug_info    0x0000031c       0x3b ./src/crp.o
 .debug_info    0x00000357      0x429 D:\Programming\Projects\SPI2WS2812-Worm\SPI2WSFirmware\workspace\CMSIS_CORE_LPC11xxLV\Release\libCMSIS_CORE_LPC11xxLV.a(system_LPC11xxLV.o)

.debug_abbrev   0x00000000      0x2b5
 .debug_abbrev  0x00000000       0x63 ./src/SPI2WS281xFirmware.o
 .debug_abbrev  0x00000063      0x11c ./src/cr_startup_lpc11xxlv.o
 .debug_abbrev  0x0000017f       0x33 ./src/crp.o
 .debug_abbrev  0x000001b2      0x103 D:\Programming\Projects\SPI2WS2812-Worm\SPI2WSFirmware\workspace\CMSIS_CORE_LPC11xxLV\Release\libCMSIS_CORE_LPC11xxLV.a(system_LPC11xxLV.o)

.debug_aranges  0x00000000       0xc0
 .debug_aranges
                0x00000000       0x20 ./src/SPI2WS281xFirmware.o
 .debug_aranges
                0x00000020       0x60 ./src/cr_startup_lpc11xxlv.o
 .debug_aranges
                0x00000080       0x18 ./src/crp.o
 .debug_aranges
                0x00000098       0x28 D:\Programming\Projects\SPI2WS2812-Worm\SPI2WSFirmware\workspace\CMSIS_CORE_LPC11xxLV\Release\libCMSIS_CORE_LPC11xxLV.a(system_LPC11xxLV.o)

.debug_ranges   0x00000000       0x78
 .debug_ranges  0x00000000       0x10 ./src/SPI2WS281xFirmware.o
 .debug_ranges  0x00000010       0x50 ./src/cr_startup_lpc11xxlv.o
 .debug_ranges  0x00000060       0x18 D:\Programming\Projects\SPI2WS2812-Worm\SPI2WSFirmware\workspace\CMSIS_CORE_LPC11xxLV\Release\libCMSIS_CORE_LPC11xxLV.a(system_LPC11xxLV.o)

.debug_line     0x00000000      0x2ef
 .debug_line    0x00000000       0x52 ./src/SPI2WS281xFirmware.o
 .debug_line    0x00000052       0x9a ./src/cr_startup_lpc11xxlv.o
 .debug_line    0x000000ec       0x2d ./src/crp.o
 .debug_line    0x00000119      0x1d6 D:\Programming\Projects\SPI2WS2812-Worm\SPI2WSFirmware\workspace\CMSIS_CORE_LPC11xxLV\Release\libCMSIS_CORE_LPC11xxLV.a(system_LPC11xxLV.o)

.debug_str      0x00000000      0x6ab
 .debug_str     0x00000000      0x1a4 ./src/SPI2WS281xFirmware.o
                                0x1d8 (size before relaxing)
 .debug_str     0x000001a4      0x16f ./src/cr_startup_lpc11xxlv.o
                                0x2b8 (size before relaxing)
 .debug_str     0x00000313       0xc2 ./src/crp.o
                                0x12b (size before relaxing)
 .debug_str     0x000003d5      0x2d6 D:\Programming\Projects\SPI2WS2812-Worm\SPI2WSFirmware\workspace\CMSIS_CORE_LPC11xxLV\Release\libCMSIS_CORE_LPC11xxLV.a(system_LPC11xxLV.o)
                                0x423 (size before relaxing)

.comment        0x00000000       0x70
 .comment       0x00000000       0x70 ./src/SPI2WS281xFirmware.o
                                 0x71 (size before relaxing)
 .comment       0x00000000       0x71 ./src/cr_startup_lpc11xxlv.o
 .comment       0x00000000       0x71 ./src/crp.o
 .comment       0x00000000       0x71 D:\Programming\Projects\SPI2WS2812-Worm\SPI2WSFirmware\workspace\CMSIS_CORE_LPC11xxLV\Release\libCMSIS_CORE_LPC11xxLV.a(system_LPC11xxLV.o)

.ARM.attributes
                0x00000000       0x31
 .ARM.attributes
                0x00000000       0x31 ./src/SPI2WS281xFirmware.o
 .ARM.attributes
                0x00000031       0x31 ./src/cr_startup_lpc11xxlv.o
 .ARM.attributes
                0x00000062       0x31 ./src/crp.o
 .ARM.attributes
                0x00000093       0x31 D:\Programming\Projects\SPI2WS2812-Worm\SPI2WSFirmware\workspace\CMSIS_CORE_LPC11xxLV\Release\libCMSIS_CORE_LPC11xxLV.a(system_LPC11xxLV.o)
 .ARM.attributes
                0x000000c4       0x2c d:/programming/lpcxpresso_7.4.0_229/lpcxpresso/tools/bin/../lib/gcc/arm-none-eabi/4.8.4/../../../../arm-none-eabi/lib/armv6-m\libc.a(lib_a-init.o)
 .ARM.attributes
                0x000000f0       0x1e d:/programming/lpcxpresso_7.4.0_229/lpcxpresso/tools/bin/../lib/gcc/arm-none-eabi/4.8.4/armv6-m\crti.o
 .ARM.attributes
                0x0000010e       0x1e d:/programming/lpcxpresso_7.4.0_229/lpcxpresso/tools/bin/../lib/gcc/arm-none-eabi/4.8.4/armv6-m\crtn.o
 .ARM.attributes
                0x0000012c       0x2c d:/programming/lpcxpresso_7.4.0_229/lpcxpresso/tools/bin/../lib/gcc/arm-none-eabi/4.8.4/armv6-m\crtbegin.o

.debug_frame    0x00000000      0x13c
 .debug_frame   0x00000000       0x20 ./src/SPI2WS281xFirmware.o
 .debug_frame   0x00000020       0xb0 ./src/cr_startup_lpc11xxlv.o
 .debug_frame   0x000000d0       0x40 D:\Programming\Projects\SPI2WS2812-Worm\SPI2WSFirmware\workspace\CMSIS_CORE_LPC11xxLV\Release\libCMSIS_CORE_LPC11xxLV.a(system_LPC11xxLV.o)
 .debug_frame   0x00000110       0x2c d:/programming/lpcxpresso_7.4.0_229/lpcxpresso/tools/bin/../lib/gcc/arm-none-eabi/4.8.4/../../../../arm-none-eabi/lib/armv6-m\libc.a(lib_a-init.o)

.debug_loc      0x00000000      0x212
 .debug_loc     0x00000000      0x1bb ./src/cr_startup_lpc11xxlv.o
 .debug_loc     0x000001bb       0x57 D:\Programming\Projects\SPI2WS2812-Worm\SPI2WSFirmware\workspace\CMSIS_CORE_LPC11xxLV\Release\libCMSIS_CORE_LPC11xxLV.a(system_LPC11xxLV.o)
